{
  "_format": "hh-sol-artifact-1",
  "contractName": "EcoLedger",
  "sourceName": "contracts/EcoLedger.sol",
  "abi": [
    {
      "inputs": [],
      "stateMutability": "nonpayable",
      "type": "constructor"
    },
    {
      "inputs": [
        {
          "internalType": "address",
          "name": "owner",
          "type": "address"
        }
      ],
      "name": "OwnableInvalidOwner",
      "type": "error"
    },
    {
      "inputs": [
        {
          "internalType": "address",
          "name": "account",
          "type": "address"
        }
      ],
      "name": "OwnableUnauthorizedAccount",
      "type": "error"
    },
    {
      "anonymous": false,
      "inputs": [
        {
          "indexed": true,
          "internalType": "address",
          "name": "previousOwner",
          "type": "address"
        },
        {
          "indexed": true,
          "internalType": "address",
          "name": "newOwner",
          "type": "address"
        }
      ],
      "name": "OwnershipTransferred",
      "type": "event"
    },
    {
      "anonymous": false,
      "inputs": [
        {
          "indexed": true,
          "internalType": "string",
          "name": "productId",
          "type": "string"
        },
        {
          "indexed": false,
          "internalType": "string",
          "name": "name",
          "type": "string"
        },
        {
          "indexed": false,
          "internalType": "string",
          "name": "category",
          "type": "string"
        },
        {
          "indexed": false,
          "internalType": "uint256",
          "name": "co2Footprint",
          "type": "uint256"
        },
        {
          "indexed": true,
          "internalType": "address",
          "name": "company",
          "type": "address"
        },
        {
          "indexed": false,
          "internalType": "uint256",
          "name": "timestamp",
          "type": "uint256"
        }
      ],
      "name": "ProductRegistered",
      "type": "event"
    },
    {
      "anonymous": false,
      "inputs": [
        {
          "indexed": true,
          "internalType": "string",
          "name": "productId",
          "type": "string"
        },
        {
          "indexed": false,
          "internalType": "string",
          "name": "name",
          "type": "string"
        },
        {
          "indexed": false,
          "internalType": "uint256",
          "name": "newCo2Footprint",
          "type": "uint256"
        },
        {
          "indexed": true,
          "internalType": "address",
          "name": "company",
          "type": "address"
        }
      ],
      "name": "ProductUpdated",
      "type": "event"
    },
    {
      "inputs": [],
      "name": "getAllProducts",
      "outputs": [
        {
          "components": [
            {
              "internalType": "string",
              "name": "productId",
              "type": "string"
            },
            {
              "internalType": "string",
              "name": "name",
              "type": "string"
            },
            {
              "internalType": "string",
              "name": "category",
              "type": "string"
            },
            {
              "internalType": "uint256",
              "name": "co2Footprint",
              "type": "uint256"
            },
            {
              "internalType": "address",
              "name": "company",
              "type": "address"
            },
            {
              "internalType": "uint256",
              "name": "timestamp",
              "type": "uint256"
            },
            {
              "internalType": "string",
              "name": "txHash",
              "type": "string"
            },
            {
              "internalType": "bool",
              "name": "exists",
              "type": "bool"
            }
          ],
          "internalType": "struct EcoLedger.Product[]",
          "name": "",
          "type": "tuple[]"
        }
      ],
      "stateMutability": "view",
      "type": "function"
    },
    {
      "inputs": [],
      "name": "getGlobalStats",
      "outputs": [
        {
          "internalType": "uint256",
          "name": "totalWallets",
          "type": "uint256"
        },
        {
          "internalType": "uint256",
          "name": "totalProducts",
          "type": "uint256"
        },
        {
          "internalType": "uint256",
          "name": "totalCo2Footprint",
          "type": "uint256"
        }
      ],
      "stateMutability": "view",
      "type": "function"
    },
    {
      "inputs": [
        {
          "internalType": "string",
          "name": "_productId",
          "type": "string"
        }
      ],
      "name": "getProduct",
      "outputs": [
        {
          "components": [
            {
              "internalType": "string",
              "name": "productId",
              "type": "string"
            },
            {
              "internalType": "string",
              "name": "name",
              "type": "string"
            },
            {
              "internalType": "string",
              "name": "category",
              "type": "string"
            },
            {
              "internalType": "uint256",
              "name": "co2Footprint",
              "type": "uint256"
            },
            {
              "internalType": "address",
              "name": "company",
              "type": "address"
            },
            {
              "internalType": "uint256",
              "name": "timestamp",
              "type": "uint256"
            },
            {
              "internalType": "string",
              "name": "txHash",
              "type": "string"
            },
            {
              "internalType": "bool",
              "name": "exists",
              "type": "bool"
            }
          ],
          "internalType": "struct EcoLedger.Product",
          "name": "",
          "type": "tuple"
        }
      ],
      "stateMutability": "view",
      "type": "function"
    },
    {
      "inputs": [],
      "name": "getTotalCo2Footprint",
      "outputs": [
        {
          "internalType": "uint256",
          "name": "",
          "type": "uint256"
        }
      ],
      "stateMutability": "view",
      "type": "function"
    },
    {
      "inputs": [],
      "name": "getTotalProducts",
      "outputs": [
        {
          "internalType": "uint256",
          "name": "",
          "type": "uint256"
        }
      ],
      "stateMutability": "view",
      "type": "function"
    },
    {
      "inputs": [
        {
          "internalType": "address",
          "name": "_wallet",
          "type": "address"
        }
      ],
      "name": "getWalletProducts",
      "outputs": [
        {
          "components": [
            {
              "internalType": "string",
              "name": "productId",
              "type": "string"
            },
            {
              "internalType": "string",
              "name": "name",
              "type": "string"
            },
            {
              "internalType": "string",
              "name": "category",
              "type": "string"
            },
            {
              "internalType": "uint256",
              "name": "co2Footprint",
              "type": "uint256"
            },
            {
              "internalType": "address",
              "name": "company",
              "type": "address"
            },
            {
              "internalType": "uint256",
              "name": "timestamp",
              "type": "uint256"
            },
            {
              "internalType": "string",
              "name": "txHash",
              "type": "string"
            },
            {
              "internalType": "bool",
              "name": "exists",
              "type": "bool"
            }
          ],
          "internalType": "struct EcoLedger.Product[]",
          "name": "",
          "type": "tuple[]"
        }
      ],
      "stateMutability": "view",
      "type": "function"
    },
    {
      "inputs": [
        {
          "internalType": "address",
          "name": "_wallet",
          "type": "address"
        }
      ],
      "name": "getWalletStats",
      "outputs": [
        {
          "internalType": "uint256",
          "name": "totalProducts",
          "type": "uint256"
        },
        {
          "internalType": "uint256",
          "name": "totalCo2Footprint",
          "type": "uint256"
        },
        {
          "internalType": "uint256",
          "name": "averageCo2PerProduct",
          "type": "uint256"
        }
      ],
      "stateMutability": "view",
      "type": "function"
    },
    {
      "inputs": [
        {
          "internalType": "string",
          "name": "_productId",
          "type": "string"
        }
      ],
      "name": "isProductExists",
      "outputs": [
        {
          "internalType": "bool",
          "name": "",
          "type": "bool"
        }
      ],
      "stateMutability": "view",
      "type": "function"
    },
    {
      "inputs": [],
      "name": "owner",
      "outputs": [
        {
          "internalType": "address",
          "name": "",
          "type": "address"
        }
      ],
      "stateMutability": "view",
      "type": "function"
    },
    {
      "inputs": [
        {
          "internalType": "uint256",
          "name": "",
          "type": "uint256"
        }
      ],
      "name": "productIds",
      "outputs": [
        {
          "internalType": "string",
          "name": "",
          "type": "string"
        }
      ],
      "stateMutability": "view",
      "type": "function"
    },
    {
      "inputs": [
        {
          "internalType": "string",
          "name": "",
          "type": "string"
        }
      ],
      "name": "products",
      "outputs": [
        {
          "internalType": "string",
          "name": "productId",
          "type": "string"
        },
        {
          "internalType": "string",
          "name": "name",
          "type": "string"
        },
        {
          "internalType": "string",
          "name": "category",
          "type": "string"
        },
        {
          "internalType": "uint256",
          "name": "co2Footprint",
          "type": "uint256"
        },
        {
          "internalType": "address",
          "name": "company",
          "type": "address"
        },
        {
          "internalType": "uint256",
          "name": "timestamp",
          "type": "uint256"
        },
        {
          "internalType": "string",
          "name": "txHash",
          "type": "string"
        },
        {
          "internalType": "bool",
          "name": "exists",
          "type": "bool"
        }
      ],
      "stateMutability": "view",
      "type": "function"
    },
    {
      "inputs": [
        {
          "internalType": "string",
          "name": "_productId",
          "type": "string"
        },
        {
          "internalType": "string",
          "name": "_name",
          "type": "string"
        },
        {
          "internalType": "string",
          "name": "_category",
          "type": "string"
        },
        {
          "internalType": "uint256",
          "name": "_co2Footprint",
          "type": "uint256"
        },
        {
          "internalType": "string",
          "name": "_txHash",
          "type": "string"
        }
      ],
      "name": "registerProduct",
      "outputs": [],
      "stateMutability": "nonpayable",
      "type": "function"
    },
    {
      "inputs": [],
      "name": "renounceOwnership",
      "outputs": [],
      "stateMutability": "nonpayable",
      "type": "function"
    },
    {
      "inputs": [
        {
          "internalType": "address",
          "name": "newOwner",
          "type": "address"
        }
      ],
      "name": "transferOwnership",
      "outputs": [],
      "stateMutability": "nonpayable",
      "type": "function"
    },
    {
      "inputs": [
        {
          "internalType": "string",
          "name": "_productId",
          "type": "string"
        },
        {
          "internalType": "uint256",
          "name": "_newCo2Footprint",
          "type": "uint256"
        }
      ],
      "name": "updateProductCo2",
      "outputs": [],
      "stateMutability": "nonpayable",
      "type": "function"
    },
    {
      "inputs": [
        {
          "internalType": "string",
          "name": "_productId",
          "type": "string"
        },
        {
          "internalType": "string",
          "name": "_txHash",
          "type": "string"
        }
      ],
      "name": "updateProductTxHash",
      "outputs": [],
      "stateMutability": "nonpayable",
      "type": "function"
    },
    {
      "inputs": [
        {
          "internalType": "address",
          "name": "",
          "type": "address"
        },
        {
          "internalType": "uint256",
          "name": "",
          "type": "uint256"
        }
      ],
      "name": "walletProducts",
      "outputs": [
        {
          "internalType": "string",
          "name": "",
          "type": "string"
        }
      ],
      "stateMutability": "view",
      "type": "function"
    }
  ],
  "bytecode": "0x608060405234801561001057600080fd5b50338061003757604051631e4fbdf760e01b81526000600482015260240160405180910390fd5b61004081610046565b50610096565b600080546001600160a01b038381166001600160a01b0319831681178455604051919092169283917f8be0079c531659141344cd1fd0a4f28419497f9722a3daafe3b4186f6b6457e09190a35050565b6124d380620000a66000396000f3fe608060405234801561001057600080fd5b506004361061010b5760003560e01c8063715018a6116100a2578063b702559d11610071578063b702559d1461024b578063be701d6a1461025e578063cb51bba914610271578063e06d246214610284578063f2fde38b1461028c57600080fd5b8063715018a6146101f25780637bdf8556146101fa5780638931e8281461021d5780638da5cb5b1461023057600080fd5b8063570aea8a116100de578063570aea8a1461018a57806358915df81461019c57806368111cce146101af5780636b4169c3146101cf57600080fd5b80630186a4231461011057806302ee3a52146101405780630cdf3e3b1461015557806318c016ce14610175575b600080fd5b61012361011e366004611c9d565b61029f565b604051610137989796959493929190611d2a565b60405180910390f35b61014861051c565b6040516101379190611e58565b610168610163366004611ed6565b610888565b6040516101379190611f00565b610188610183366004611f1a565b610941565b005b6003545b604051908152602001610137565b6101486101aa366004611fd1565b610ce8565b6101c26101bd366004611c9d565b611134565b6040516101379190611fec565b6101d7611432565b60408051938452602084019290925290820152606001610137565b6101886115a2565b61020d610208366004611c9d565b6115b6565b6040519015158152602001610137565b6101d761022b366004611fd1565b6115e4565b6000546040516001600160a01b039091168152602001610137565b610188610259366004611fff565b61176e565b61018861026c366004612063565b611916565b61016861027f3660046120a8565b611a58565b61018e611a83565b61018861029a366004611fd1565b611aef565b80516020818301810180516001825292820191909301209152805481906102c5906120c1565b80601f01602080910402602001604051908101604052809291908181526020018280546102f1906120c1565b801561033e5780601f106103135761010080835404028352916020019161033e565b820191906000526020600020905b81548152906001019060200180831161032157829003601f168201915b505050505090806001018054610353906120c1565b80601f016020809104026020016040519081016040528092919081815260200182805461037f906120c1565b80156103cc5780601f106103a1576101008083540402835291602001916103cc565b820191906000526020600020905b8154815290600101906020018083116103af57829003601f168201915b5050505050908060020180546103e1906120c1565b80601f016020809104026020016040519081016040528092919081815260200182805461040d906120c1565b801561045a5780601f1061042f5761010080835404028352916020019161045a565b820191906000526020600020905b81548152906001019060200180831161043d57829003601f168201915b505050600384015460048501546005860154600687018054969793966001600160a01b03909316955090935090610490906120c1565b80601f01602080910402602001604051908101604052809291908181526020018280546104bc906120c1565b80156105095780601f106104de57610100808354040283529160200191610509565b820191906000526020600020905b8154815290600101906020018083116104ec57829003601f168201915b5050506007909301549192505060ff1688565b60035460609060009067ffffffffffffffff81111561053d5761053d611bfa565b60405190808252806020026020018201604052801561057657816020015b610563611baa565b81526020019060019003908161055b5790505b50905060005b6003548110156108825760016003828154811061059b5761059b6120f5565b906000526020600020016040516105b2919061210b565b9081526020016040518091039020604051806101000160405290816000820180546105dc906120c1565b80601f0160208091040260200160405190810160405280929190818152602001828054610608906120c1565b80156106555780601f1061062a57610100808354040283529160200191610655565b820191906000526020600020905b81548152906001019060200180831161063857829003601f168201915b5050505050815260200160018201805461066e906120c1565b80601f016020809104026020016040519081016040528092919081815260200182805461069a906120c1565b80156106e75780601f106106bc576101008083540402835291602001916106e7565b820191906000526020600020905b8154815290600101906020018083116106ca57829003601f168201915b50505050508152602001600282018054610700906120c1565b80601f016020809104026020016040519081016040528092919081815260200182805461072c906120c1565b80156107795780601f1061074e57610100808354040283529160200191610779565b820191906000526020600020905b81548152906001019060200180831161075c57829003601f168201915b50505091835250506003820154602082015260048201546001600160a01b03166040820152600582015460608201526006820180546080909201916107bd906120c1565b80601f01602080910402602001604051908101604052809291908181526020018280546107e9906120c1565b80156108365780601f1061080b57610100808354040283529160200191610836565b820191906000526020600020905b81548152906001019060200180831161081957829003601f168201915b50505091835250506007919091015460ff1615156020909101528251839083908110610864576108646120f5565b6020026020010181905250808061087a90612197565b91505061057c565b50919050565b600260205281600052604060002081815481106108a457600080fd5b906000526020600020016000915091505080546108c0906120c1565b80601f01602080910402602001604051908101604052809291908181526020018280546108ec906120c1565b80156109395780601f1061090e57610100808354040283529160200191610939565b820191906000526020600020905b81548152906001019060200180831161091c57829003601f168201915b505050505081565b60008551116109975760405162461bcd60e51b815260206004820152601a60248201527f50726f647563742049442063616e6e6f7420626520656d70747900000000000060448201526064015b60405180910390fd5b60008451116109e85760405162461bcd60e51b815260206004820152601c60248201527f50726f64756374206e616d652063616e6e6f7420626520656d70747900000000604482015260640161098e565b6000835111610a395760405162461bcd60e51b815260206004820181905260248201527f50726f647563742063617465676f72792063616e6e6f7420626520656d707479604482015260640161098e565b60008211610a595760405162461bcd60e51b815260040161098e906121b0565b6000815111610aaa5760405162461bcd60e51b815260206004820181905260248201527f5472616e73616374696f6e20686173682063616e6e6f7420626520656d707479604482015260640161098e565b600185604051610aba91906121f4565b9081526040519081900360200190206007015460ff1615610b1d5760405162461bcd60e51b815260206004820152601960248201527f50726f6475637420494420616c72656164792065786973747300000000000000604482015260640161098e565b604051806101000160405280868152602001858152602001848152602001838152602001336001600160a01b0316815260200142815260200182815260200160011515815250600186604051610b7391906121f4565b90815260405190819003602001902081518190610b90908261225f565b5060208201516001820190610ba5908261225f565b5060408201516002820190610bba908261225f565b506060820151600382015560808201516004820180546001600160a01b0319166001600160a01b0390921691909117905560a0820151600582015560c08201516006820190610c09908261225f565b5060e091909101516007909101805460ff1916911515919091179055600380546001810182556000919091527fc2575a0e9e593c00f959f8c92f12db2869c3395a3b0502d05e2516446f71f85b01610c61868261225f565b5033600090815260026020908152604082208054600181018255908352912001610c8b868261225f565b506040513390610c9c9087906121f4565b60405180910390207fc2459e480c0fdb8b4b2bc9d300c545ca0f00c03dbcb49a7799999559702a6a7386868642604051610cd9949392919061231f565b60405180910390a35050505050565b6001600160a01b0381166000908152600260209081526040808320805482518185028101850190935280835260609493849084015b82821015610dc9578382906000526020600020018054610d3c906120c1565b80601f0160208091040260200160405190810160405280929190818152602001828054610d68906120c1565b8015610db55780601f10610d8a57610100808354040283529160200191610db5565b820191906000526020600020905b815481529060010190602001808311610d9857829003601f168201915b505050505081526020019060010190610d1d565b5050505090506000815167ffffffffffffffff811115610deb57610deb611bfa565b604051908082528060200260200182016040528015610e2457816020015b610e11611baa565b815260200190600190039081610e095790505b50905060005b825181101561112c576001838281518110610e4757610e476120f5565b6020026020010151604051610e5c91906121f4565b908152602001604051809103902060405180610100016040529081600082018054610e86906120c1565b80601f0160208091040260200160405190810160405280929190818152602001828054610eb2906120c1565b8015610eff5780601f10610ed457610100808354040283529160200191610eff565b820191906000526020600020905b815481529060010190602001808311610ee257829003601f168201915b50505050508152602001600182018054610f18906120c1565b80601f0160208091040260200160405190810160405280929190818152602001828054610f44906120c1565b8015610f915780601f10610f6657610100808354040283529160200191610f91565b820191906000526020600020905b815481529060010190602001808311610f7457829003601f168201915b50505050508152602001600282018054610faa906120c1565b80601f0160208091040260200160405190810160405280929190818152602001828054610fd6906120c1565b80156110235780601f10610ff857610100808354040283529160200191611023565b820191906000526020600020905b81548152906001019060200180831161100657829003601f168201915b50505091835250506003820154602082015260048201546001600160a01b0316604082015260058201546060820152600682018054608090920191611067906120c1565b80601f0160208091040260200160405190810160405280929190818152602001828054611093906120c1565b80156110e05780601f106110b5576101008083540402835291602001916110e0565b820191906000526020600020905b8154815290600101906020018083116110c357829003601f168201915b50505091835250506007919091015460ff161515602090910152825183908390811061110e5761110e6120f5565b6020026020010181905250808061112490612197565b915050610e2a565b509392505050565b61113c611baa565b60018260405161114c91906121f4565b9081526040519081900360200190206007015460ff1661117e5760405162461bcd60e51b815260040161098e90612358565b60018260405161118e91906121f4565b9081526020016040518091039020604051806101000160405290816000820180546111b8906120c1565b80601f01602080910402602001604051908101604052809291908181526020018280546111e4906120c1565b80156112315780601f1061120657610100808354040283529160200191611231565b820191906000526020600020905b81548152906001019060200180831161121457829003601f168201915b5050505050815260200160018201805461124a906120c1565b80601f0160208091040260200160405190810160405280929190818152602001828054611276906120c1565b80156112c35780601f10611298576101008083540402835291602001916112c3565b820191906000526020600020905b8154815290600101906020018083116112a657829003601f168201915b505050505081526020016002820180546112dc906120c1565b80601f0160208091040260200160405190810160405280929190818152602001828054611308906120c1565b80156113555780601f1061132a57610100808354040283529160200191611355565b820191906000526020600020905b81548152906001019060200180831161133857829003601f168201915b50505091835250506003820154602082015260048201546001600160a01b0316604082015260058201546060820152600682018054608090920191611399906120c1565b80601f01602080910402602001604051908101604052809291908181526020018280546113c5906120c1565b80156114125780601f106113e757610100808354040283529160200191611412565b820191906000526020600020905b8154815290600101906020018083116113f557829003601f168201915b50505091835250506007919091015460ff16151560209091015292915050565b60035460009081611441611a83565b60035490915060009067ffffffffffffffff81111561146257611462611bfa565b60405190808252806020026020018201604052801561148b578160200160208202803683370190505b5090506000805b6003548110156115975760006001600383815481106114b3576114b36120f5565b906000526020600020016040516114ca919061210b565b908152604051908190036020019020600401546001600160a01b03169050600160005b8481101561154257826001600160a01b0316868281518110611511576115116120f5565b60200260200101516001600160a01b0316036115305760009150611542565b8061153a81612197565b9150506114ed565b508015611582578185858151811061155c5761155c6120f5565b6001600160a01b03909216602092830291909101909101528361157e81612197565b9450505b5050808061158f90612197565b915050611492565b508094505050909192565b6115aa611b2d565b6115b46000611b5a565b565b60006001826040516115c891906121f4565b9081526040519081900360200190206007015460ff1692915050565b60008060008060026000866001600160a01b03166001600160a01b03168152602001908152602001600020805480602002602001604051908101604052809291908181526020016000905b828210156116db57838290600052602060002001805461164e906120c1565b80601f016020809104026020016040519081016040528092919081815260200182805461167a906120c1565b80156116c75780601f1061169c576101008083540402835291602001916116c7565b820191906000526020600020905b8154815290600101906020018083116116aa57829003601f168201915b50505050508152602001906001019061162f565b5050505090508051935060005b815181101561174b576001828281518110611705576117056120f5565b602002602001015160405161171a91906121f4565b908152602001604051809103902060030154846117379190612388565b93508061174381612197565b9150506116e8565b506000841161175b576000611765565b61176584846123a1565b93959294505050565b60018260405161177e91906121f4565b9081526040519081900360200190206007015460ff166117b05760405162461bcd60e51b815260040161098e90612358565b336001600160a01b03166001836040516117ca91906121f4565b908152604051908190036020019020600401546001600160a01b0316146118035760405162461bcd60e51b815260040161098e906123c3565b60008151116118545760405162461bcd60e51b815260206004820181905260248201527f5472616e73616374696f6e20686173682063616e6e6f7420626520656d707479604482015260640161098e565b8060018360405161186591906121f4565b90815260200160405180910390206006019081611882919061225f565b5060405133906118939084906121f4565b60405180910390207fff5bbdba77c121117541d904b066a638eea2ef3ba2301135ce676c03adcd884e6001856040516118cc91906121f4565b90815260200160405180910390206001016001866040516118ed91906121f4565b9081526040519081900360200181206003015461190a9291612409565b60405180910390a35050565b60018260405161192691906121f4565b9081526040519081900360200190206007015460ff166119585760405162461bcd60e51b815260040161098e90612358565b336001600160a01b031660018360405161197291906121f4565b908152604051908190036020019020600401546001600160a01b0316146119ab5760405162461bcd60e51b815260040161098e906123c3565b600081116119cb5760405162461bcd60e51b815260040161098e906121b0565b806001836040516119dc91906121f4565b9081526040519081900360200181206003019190915533906119ff9084906121f4565b60405180910390207fff5bbdba77c121117541d904b066a638eea2ef3ba2301135ce676c03adcd884e600185604051611a3891906121f4565b90815260200160405180910390206001018460405161190a929190612409565b60038181548110611a6857600080fd5b9060005260206000200160009150905080546108c0906120c1565b600080805b60035481101561088257600160038281548110611aa757611aa76120f5565b90600052602060002001604051611abe919061210b565b90815260200160405180910390206003015482611adb9190612388565b915080611ae781612197565b915050611a88565b611af7611b2d565b6001600160a01b038116611b2157604051631e4fbdf760e01b81526000600482015260240161098e565b611b2a81611b5a565b50565b6000546001600160a01b031633146115b45760405163118cdaa760e01b815233600482015260240161098e565b600080546001600160a01b038381166001600160a01b0319831681178455604051919092169283917f8be0079c531659141344cd1fd0a4f28419497f9722a3daafe3b4186f6b6457e09190a35050565b6040518061010001604052806060815260200160608152602001606081526020016000815260200160006001600160a01b0316815260200160008152602001606081526020016000151581525090565b634e487b7160e01b600052604160045260246000fd5b600082601f830112611c2157600080fd5b813567ffffffffffffffff80821115611c3c57611c3c611bfa565b604051601f8301601f19908116603f01168101908282118183101715611c6457611c64611bfa565b81604052838152866020858801011115611c7d57600080fd5b836020870160208301376000602085830101528094505050505092915050565b600060208284031215611caf57600080fd5b813567ffffffffffffffff811115611cc657600080fd5b611cd284828501611c10565b949350505050565b60005b83811015611cf5578181015183820152602001611cdd565b50506000910152565b60008151808452611d16816020860160208601611cda565b601f01601f19169290920160200192915050565b6000610100808352611d3e8184018c611cfe565b90508281036020840152611d52818b611cfe565b90508281036040840152611d66818a611cfe565b606084018990526001600160a01b038816608085015260a0840187905283810360c08501529050611d978186611cfe565b91505082151560e08301529998505050505050505050565b60006101008251818552611dc582860182611cfe565b91505060208301518482036020860152611ddf8282611cfe565b91505060408301518482036040860152611df98282611cfe565b915050606083015160608501526080830151611e2060808601826001600160a01b03169052565b5060a083015160a085015260c083015184820360c0860152611e428282611cfe565b91505060e083015161112c60e086018215159052565b6000602080830181845280855180835260408601915060408160051b870101925083870160005b82811015611ead57603f19888603018452611e9b858351611daf565b94509285019290850190600101611e7f565b5092979650505050505050565b80356001600160a01b0381168114611ed157600080fd5b919050565b60008060408385031215611ee957600080fd5b611ef283611eba565b946020939093013593505050565b602081526000611f136020830184611cfe565b9392505050565b600080600080600060a08688031215611f3257600080fd5b853567ffffffffffffffff80821115611f4a57600080fd5b611f5689838a01611c10565b96506020880135915080821115611f6c57600080fd5b611f7889838a01611c10565b95506040880135915080821115611f8e57600080fd5b611f9a89838a01611c10565b9450606088013593506080880135915080821115611fb757600080fd5b50611fc488828901611c10565b9150509295509295909350565b600060208284031215611fe357600080fd5b611f1382611eba565b602081526000611f136020830184611daf565b6000806040838503121561201257600080fd5b823567ffffffffffffffff8082111561202a57600080fd5b61203686838701611c10565b9350602085013591508082111561204c57600080fd5b5061205985828601611c10565b9150509250929050565b6000806040838503121561207657600080fd5b823567ffffffffffffffff81111561208d57600080fd5b61209985828601611c10565b95602094909401359450505050565b6000602082840312156120ba57600080fd5b5035919050565b600181811c908216806120d557607f821691505b60208210810361088257634e487b7160e01b600052602260045260246000fd5b634e487b7160e01b600052603260045260246000fd5b6000808354612119816120c1565b60018281168015612131576001811461214657612175565b60ff1984168752821515830287019450612175565b8760005260208060002060005b8581101561216c5781548a820152908401908201612153565b50505082870194505b50929695505050505050565b634e487b7160e01b600052601160045260246000fd5b6000600182016121a9576121a9612181565b5060010190565b60208082526024908201527f434f3220666f6f747072696e74206d75737420626520677265617465722074686040820152630616e20360e41b606082015260800190565b60008251612206818460208701611cda565b9190910192915050565b601f82111561225a57600081815260208120601f850160051c810160208610156122375750805b601f850160051c820191505b8181101561225657828155600101612243565b5050505b505050565b815167ffffffffffffffff81111561227957612279611bfa565b61228d8161228784546120c1565b84612210565b602080601f8311600181146122c257600084156122aa5750858301515b600019600386901b1c1916600185901b178555612256565b600085815260208120601f198616915b828110156122f1578886015182559484019460019091019084016122d2565b508582101561230f5787850151600019600388901b60f8161c191681555b5050505050600190811b01905550565b6080815260006123326080830187611cfe565b82810360208401526123448187611cfe565b604084019590955250506060015292915050565b602080825260169082015275141c9bd91d58dd08191bd95cc81b9bdd08195e1a5cdd60521b604082015260600190565b8082018082111561239b5761239b612181565b92915050565b6000826123be57634e487b7160e01b600052601260045260246000fd5b500490565b60208082526026908201527f4f6e6c7920746865207265676973746572696e672077616c6c65742063616e2060408201526575706461746560d01b606082015260800190565b60408152600080845461241b816120c1565b806040860152606060018084166000811461243d576001811461245757612488565b60ff1985168884015283151560051b880183019550612488565b8960005260208060002060005b8681101561247f5781548b8201870152908401908201612464565b8a018501975050505b5050505050602092909201929092529291505056fea26469706673582212202543382002ba6ef4c25b893d78864d15a932e9d01da750b5361ae115c989c6f064736f6c63430008140033",
  "linkReferences": {},
  "deployedLinkReferences": {}
}